{
  "address": "0xe59d41ebE7B0A5A684B1d6183E4c79163588Af02",
  "abi": [
    {
      "inputs": [
        {
          "internalType": "address",
          "name": "usdc_",
          "type": "address"
        },
        {
          "internalType": "address",
          "name": "gasReceiver_",
          "type": "address"
        },
        {
          "internalType": "address",
          "name": "gateway_",
          "type": "address"
        },
        {
          "internalType": "address",
          "name": "tokenMessenger_",
          "type": "address"
        }
      ],
      "stateMutability": "nonpayable",
      "type": "constructor"
    },
    {
      "inputs": [],
      "name": "InsufficientInput",
      "type": "error"
    },
    {
      "inputs": [],
      "name": "InvalidAddress",
      "type": "error"
    },
    {
      "inputs": [],
      "name": "InvalidTrade",
      "type": "error"
    },
    {
      "inputs": [],
      "name": "NotApprovedByGateway",
      "type": "error"
    },
    {
      "inputs": [],
      "name": "TradeFailed",
      "type": "error"
    },
    {
      "anonymous": false,
      "inputs": [
        {
          "indexed": true,
          "internalType": "address",
          "name": "previousOwner",
          "type": "address"
        },
        {
          "indexed": true,
          "internalType": "address",
          "name": "newOwner",
          "type": "address"
        }
      ],
      "name": "OwnershipTransferred",
      "type": "event"
    },
    {
      "anonymous": false,
      "inputs": [
        {
          "indexed": true,
          "internalType": "bytes32",
          "name": "traceId",
          "type": "bytes32"
        },
        {
          "indexed": false,
          "internalType": "uint256",
          "name": "amount",
          "type": "uint256"
        },
        {
          "indexed": false,
          "internalType": "address",
          "name": "refundAddress",
          "type": "address"
        }
      ],
      "name": "SwapFailed",
      "type": "event"
    },
    {
      "anonymous": false,
      "inputs": [
        {
          "indexed": true,
          "internalType": "bytes32",
          "name": "traceId",
          "type": "bytes32"
        },
        {
          "indexed": true,
          "internalType": "bytes32",
          "name": "payloadHash",
          "type": "bytes32"
        },
        {
          "indexed": false,
          "internalType": "uint256",
          "name": "amount",
          "type": "uint256"
        },
        {
          "indexed": false,
          "internalType": "string",
          "name": "destinationChain",
          "type": "string"
        },
        {
          "indexed": false,
          "internalType": "bytes",
          "name": "payload",
          "type": "bytes"
        }
      ],
      "name": "SwapPending",
      "type": "event"
    },
    {
      "anonymous": false,
      "inputs": [
        {
          "indexed": true,
          "internalType": "bytes32",
          "name": "traceId",
          "type": "bytes32"
        },
        {
          "indexed": false,
          "internalType": "uint256",
          "name": "amount",
          "type": "uint256"
        },
        {
          "indexed": false,
          "internalType": "bytes",
          "name": "tradeData",
          "type": "bytes"
        }
      ],
      "name": "SwapSuccess",
      "type": "event"
    },
    {
      "inputs": [
        {
          "internalType": "string",
          "name": "chain_",
          "type": "string"
        },
        {
          "internalType": "address",
          "name": "address_",
          "type": "address"
        }
      ],
      "name": "addSibling",
      "outputs": [],
      "stateMutability": "nonpayable",
      "type": "function"
    },
    {
      "inputs": [
        {
          "internalType": "string",
          "name": "",
          "type": "string"
        }
      ],
      "name": "circleDestinationDomains",
      "outputs": [
        {
          "internalType": "uint32",
          "name": "",
          "type": "uint32"
        }
      ],
      "stateMutability": "view",
      "type": "function"
    },
    {
      "inputs": [
        {
          "internalType": "bytes32",
          "name": "commandId",
          "type": "bytes32"
        },
        {
          "internalType": "string",
          "name": "sourceChain",
          "type": "string"
        },
        {
          "internalType": "string",
          "name": "sourceAddress",
          "type": "string"
        },
        {
          "internalType": "bytes",
          "name": "payload",
          "type": "bytes"
        }
      ],
      "name": "execute",
      "outputs": [],
      "stateMutability": "nonpayable",
      "type": "function"
    },
    {
      "inputs": [
        {
          "internalType": "bytes32",
          "name": "commandId",
          "type": "bytes32"
        },
        {
          "internalType": "string",
          "name": "sourceChain",
          "type": "string"
        },
        {
          "internalType": "string",
          "name": "sourceAddress",
          "type": "string"
        },
        {
          "internalType": "bytes",
          "name": "payload",
          "type": "bytes"
        },
        {
          "internalType": "string",
          "name": "tokenSymbol",
          "type": "string"
        },
        {
          "internalType": "uint256",
          "name": "amount",
          "type": "uint256"
        }
      ],
      "name": "executeWithToken",
      "outputs": [],
      "stateMutability": "nonpayable",
      "type": "function"
    },
    {
      "inputs": [],
      "name": "gateway",
      "outputs": [
        {
          "internalType": "contract IAxelarGateway",
          "name": "",
          "type": "address"
        }
      ],
      "stateMutability": "view",
      "type": "function"
    },
    {
      "inputs": [
        {
          "internalType": "string",
          "name": "destinationChain",
          "type": "string"
        },
        {
          "internalType": "bytes",
          "name": "srcTradeData",
          "type": "bytes"
        },
        {
          "internalType": "bytes",
          "name": "destTradeData",
          "type": "bytes"
        },
        {
          "internalType": "bytes32",
          "name": "traceId",
          "type": "bytes32"
        },
        {
          "internalType": "address",
          "name": "fallbackRecipient",
          "type": "address"
        },
        {
          "internalType": "uint16",
          "name": "inputPos",
          "type": "uint16"
        }
      ],
      "name": "nativeTradeSendTrade",
      "outputs": [],
      "stateMutability": "payable",
      "type": "function"
    },
    {
      "inputs": [],
      "name": "owner",
      "outputs": [
        {
          "internalType": "address",
          "name": "",
          "type": "address"
        }
      ],
      "stateMutability": "view",
      "type": "function"
    },
    {
      "inputs": [],
      "name": "renounceOwnership",
      "outputs": [],
      "stateMutability": "nonpayable",
      "type": "function"
    },
    {
      "inputs": [
        {
          "internalType": "string",
          "name": "",
          "type": "string"
        }
      ],
      "name": "siblings",
      "outputs": [
        {
          "internalType": "address",
          "name": "",
          "type": "address"
        }
      ],
      "stateMutability": "view",
      "type": "function"
    },
    {
      "inputs": [],
      "name": "tokenMessenger",
      "outputs": [
        {
          "internalType": "contract ITokenMessenger",
          "name": "",
          "type": "address"
        }
      ],
      "stateMutability": "view",
      "type": "function"
    },
    {
      "inputs": [
        {
          "internalType": "address",
          "name": "newOwner",
          "type": "address"
        }
      ],
      "name": "transferOwnership",
      "outputs": [],
      "stateMutability": "nonpayable",
      "type": "function"
    },
    {
      "inputs": [],
      "name": "usdc",
      "outputs": [
        {
          "internalType": "contract IERC20",
          "name": "",
          "type": "address"
        }
      ],
      "stateMutability": "view",
      "type": "function"
    }
  ],
  "transactionHash": "0xa9840fb995f1127b45159d792ea2bfc7feda170ffa40f17d44ca90e5a49effcc",
  "args": [
    "0x5425890298aed601595a70ab815c96711a31bc65",
    "0xbE406F0189A0B4cf3A05C286473D23791Dd44Cc6",
    "0xC249632c2D40b9001FE907806902f63038B737Ab",
    "0xeb08f243e5d3fcff26a9e38ae5520a669f4019d0"
  ],
  "numDeployments": 1,
  "solcInputHash": "c63f9a892973dd96ebd6886a7a09a339",
  "bytecode": "0x60c06040523480156200001157600080fd5b506040516200365b3803806200365b833981810160405281019062000037919062000367565b81600073ffffffffffffffffffffffffffffffffffffffff168173ffffffffffffffffffffffffffffffffffffffff161415620000a0576040517fe6c4247b00000000000000000000000000000000000000000000000000000000815260040160405180910390fd5b8073ffffffffffffffffffffffffffffffffffffffff1660808173ffffffffffffffffffffffffffffffffffffffff168152505050620000f5620000e96200023160201b60201c565b6200023960201b60201c565b83600160006101000a81548173ffffffffffffffffffffffffffffffffffffffff021916908373ffffffffffffffffffffffffffffffffffffffff16021790555080600260006101000a81548173ffffffffffffffffffffffffffffffffffffffff021916908373ffffffffffffffffffffffffffffffffffffffff1602179055508273ffffffffffffffffffffffffffffffffffffffff1660a08173ffffffffffffffffffffffffffffffffffffffff168152505060006003604051620001bd9062000434565b908152602001604051809103902060006101000a81548163ffffffff021916908363ffffffff16021790555060016003604051620001fb906200049b565b908152602001604051809103902060006101000a81548163ffffffff021916908363ffffffff16021790555050505050620004b2565b600033905090565b60008060009054906101000a900473ffffffffffffffffffffffffffffffffffffffff169050816000806101000a81548173ffffffffffffffffffffffffffffffffffffffff021916908373ffffffffffffffffffffffffffffffffffffffff1602179055508173ffffffffffffffffffffffffffffffffffffffff168173ffffffffffffffffffffffffffffffffffffffff167f8be0079c531659141344cd1fd0a4f28419497f9722a3daafe3b4186f6b6457e060405160405180910390a35050565b600080fd5b600073ffffffffffffffffffffffffffffffffffffffff82169050919050565b60006200032f8262000302565b9050919050565b620003418162000322565b81146200034d57600080fd5b50565b600081519050620003618162000336565b92915050565b60008060008060808587031215620003845762000383620002fd565b5b6000620003948782880162000350565b9450506020620003a78782880162000350565b9350506040620003ba8782880162000350565b9250506060620003cd8782880162000350565b91505092959194509250565b600081905092915050565b7f657468657265756d000000000000000000000000000000000000000000000000600082015250565b60006200041c600883620003d9565b91506200042982620003e4565b600882019050919050565b600062000441826200040d565b9150819050919050565b7f6176616c616e6368650000000000000000000000000000000000000000000000600082015250565b600062000483600983620003d9565b915062000490826200044b565b600982019050919050565b6000620004a88262000474565b9150819050919050565b60805160a05161316e620004ed600039600061113501526000818161031401528181610354015281816104cb0152611259015261316e6000f3fe6080604052600436106100a75760003560e01c8063715018a611610064578063715018a6146101a85780638b5ba9c8146101bf5780638da5cb5b146101fc578063a7798b6914610227578063daa0c91714610264578063f2fde38b14610280576100a7565b80630b48ae86146100ac578063116191b6146100d55780631a98b2e0146101005780633e413bee146101295780634611783014610154578063491606581461017f575b600080fd5b3480156100b857600080fd5b506100d360048036038101906100ce9190611be0565b6102a9565b005b3480156100e157600080fd5b506100ea610312565b6040516100f79190611c9b565b60405180910390f35b34801561010c57600080fd5b5061012760048036038101906101229190611dd8565b610336565b005b34801561013557600080fd5b5061013e610461565b60405161014b9190611f09565b60405180910390f35b34801561016057600080fd5b50610169610487565b6040516101769190611f45565b60405180910390f35b34801561018b57600080fd5b506101a660048036038101906101a19190611f60565b6104ad565b005b3480156101b457600080fd5b506101bd6105cc565b005b3480156101cb57600080fd5b506101e660048036038101906101e19190612029565b6105e0565b6040516101f39190612091565b60405180910390f35b34801561020857600080fd5b50610211610619565b60405161021e91906120bb565b60405180910390f35b34801561023357600080fd5b5061024e60048036038101906102499190612029565b610642565b60405161025b91906120bb565b60405180910390f35b61027e600480360381019061027991906121b1565b61068b565b005b34801561028c57600080fd5b506102a760048036038101906102a29190612292565b61086f565b005b6102b16108f3565b806004836040516102c29190612339565b908152602001604051809103902060006101000a81548173ffffffffffffffffffffffffffffffffffffffff021916908373ffffffffffffffffffffffffffffffffffffffff1602179055505050565b7f000000000000000000000000000000000000000000000000000000000000000081565b60008585604051610348929190612380565b604051809103902090507f000000000000000000000000000000000000000000000000000000000000000073ffffffffffffffffffffffffffffffffffffffff16631876eed98c8c8c8c8c878b8b8b6040518a63ffffffff1660e01b81526004016103bb999897969594939291906123f5565b602060405180830381600087803b1580156103d557600080fd5b505af11580156103e9573d6000803e3d6000fd5b505050506040513d601f19601f8201168201806040525081019061040d91906124a9565b610443576040517f500c44b400000000000000000000000000000000000000000000000000000000815260040160405180910390fd5b6104548a8a8a8a8a8a8a8a8a610971565b5050505050505050505050565b600160009054906101000a900473ffffffffffffffffffffffffffffffffffffffff1681565b600260009054906101000a900473ffffffffffffffffffffffffffffffffffffffff1681565b600082826040516104bf929190612380565b604051809103902090507f000000000000000000000000000000000000000000000000000000000000000073ffffffffffffffffffffffffffffffffffffffff16635f6970c38989898989876040518763ffffffff1660e01b815260040161052c969594939291906124d6565b602060405180830381600087803b15801561054657600080fd5b505af115801561055a573d6000803e3d6000fd5b505050506040513d601f19601f8201168201806040525081019061057e91906124a9565b6105b4576040517f500c44b400000000000000000000000000000000000000000000000000000000815260040160405180910390fd5b6105c287878787878761097c565b5050505050505050565b6105d46108f3565b6105de6000610b27565b565b6003818051602081018201805184825260208301602085012081835280955050505050506000915054906101000a900463ffffffff1681565b60008060009054906101000a900473ffffffffffffffffffffffffffffffffffffffff16905090565b6004818051602081018201805184825260208301602085012081835280955050505050506000915054906101000a900473ffffffffffffffffffffffffffffffffffffffff1681565b85600073ffffffffffffffffffffffffffffffffffffffff166004826040516106b49190612339565b908152602001604051809103902060009054906101000a900473ffffffffffffffffffffffffffffffffffffffff1673ffffffffffffffffffffffffffffffffffffffff16141561073a576040517f08c379a000000000000000000000000000000000000000000000000000000000815260040161073190612579565b60405180910390fd5b60008061074688610beb565b915091506107dd818a3073ffffffffffffffffffffffffffffffffffffffff1663a7798b698d6040518263ffffffff1660e01b815260040161078891906125d2565b60206040518083038186803b1580156107a057600080fd5b505afa1580156107b4573d6000803e3d6000fd5b505050506040513d601f19601f820116820180604052508101906107d89190612609565b610e35565b600087828888886040516020016107f895949392919061269a565b604051602081830303815290604052905061081f8a82853461081a9190612723565b611133565b8080519060200120877f603f384676075b3ec165d26daed675db50dfd83d03f3d12e2eecad1a52da8221848d8560405161085b93929190612757565b60405180910390a350505050505050505050565b6108776108f3565b600073ffffffffffffffffffffffffffffffffffffffff168173ffffffffffffffffffffffffffffffffffffffff1614156108e7576040517f08c379a00000000000000000000000000000000000000000000000000000000081526004016108de9061280e565b60405180910390fd5b6108f081610b27565b50565b6108fb61137b565b73ffffffffffffffffffffffffffffffffffffffff16610919610619565b73ffffffffffffffffffffffffffffffffffffffff161461096f576040517f08c379a00000000000000000000000000000000000000000000000000000000081526004016109669061287a565b60405180910390fd5b565b505050505050505050565b6000806000806000868681019061099391906128d8565b9450945094509450945083818601526000806000878060200190518101906109bb9190612a09565b935093505092508273ffffffffffffffffffffffffffffffffffffffff1663095ea7b383896040518363ffffffff1660e01b81526004016109fd929190612a8c565b602060405180830381600087803b158015610a1757600080fd5b505af1158015610a2b573d6000803e3d6000fd5b505050506040513d601f19601f82011682018060405250810190610a4f91906124a9565b5060008273ffffffffffffffffffffffffffffffffffffffff1682604051610a779190612ae6565b6000604051808303816000865af19150503d8060008114610ab4576040519150601f19603f3d011682016040523d82523d6000602084013e610ab9565b606091505b5050905080610adb57610acd878988611383565b505050505050505050610b1f565b867f2eee7242b494decec975364a3a68cc2983c8c343618698e44ca690103af76175898b604051610b0d929190612afd565b60405180910390a25050505050505050505b505050505050565b60008060009054906101000a900473ffffffffffffffffffffffffffffffffffffffff169050816000806101000a81548173ffffffffffffffffffffffffffffffffffffffff021916908373ffffffffffffffffffffffffffffffffffffffff1602179055508173ffffffffffffffffffffffffffffffffffffffff168173ffffffffffffffffffffffffffffffffffffffff167f8be0079c531659141344cd1fd0a4f28419497f9722a3daafe3b4186f6b6457e060405160405180910390a35050565b6000806000600160009054906101000a900473ffffffffffffffffffffffffffffffffffffffff1673ffffffffffffffffffffffffffffffffffffffff166370a08231306040518263ffffffff1660e01b8152600401610c4b91906120bb565b60206040518083038186803b158015610c6357600080fd5b505afa158015610c77573d6000803e3d6000fd5b505050506040513d601f19601f82011682018060405250810190610c9b9190612b2d565b9050600080600086806020019051810190610cb69190612b5a565b92509250925060008273ffffffffffffffffffffffffffffffffffffffff168483604051610ce49190612ae6565b60006040518083038185875af1925050503d8060008114610d21576040519150601f19603f3d011682016040523d82523d6000602084013e610d26565b606091505b5050905080610d6a576040517f08c379a0000000000000000000000000000000000000000000000000000000008152600401610d6190612c15565b60405180910390fd5b600085600160009054906101000a900473ffffffffffffffffffffffffffffffffffffffff1673ffffffffffffffffffffffffffffffffffffffff166370a08231306040518263ffffffff1660e01b8152600401610dc891906120bb565b60206040518083038186803b158015610de057600080fd5b505afa158015610df4573d6000803e3d6000fd5b505050506040513d601f19601f82011682018060405250810190610e189190612b2d565b610e229190612723565b9050848197509750505050505050915091565b81600073ffffffffffffffffffffffffffffffffffffffff16600482604051610e5e9190612339565b908152602001604051809103902060009054906101000a900473ffffffffffffffffffffffffffffffffffffffff1673ffffffffffffffffffffffffffffffffffffffff161415610ee4576040517f08c379a0000000000000000000000000000000000000000000000000000000008152600401610edb90612579565b60405180910390fd5b600160009054906101000a900473ffffffffffffffffffffffffffffffffffffffff1673ffffffffffffffffffffffffffffffffffffffff1663095ea7b3600260009054906101000a900473ffffffffffffffffffffffffffffffffffffffff16866040518363ffffffff1660e01b8152600401610f63929190612a8c565b602060405180830381600087803b158015610f7d57600080fd5b505af1158015610f91573d6000803e3d6000fd5b505050506040513d601f19601f82011682018060405250810190610fb591906124a9565b50600260009054906101000a900473ffffffffffffffffffffffffffffffffffffffff1673ffffffffffffffffffffffffffffffffffffffff16636fd3504e853073ffffffffffffffffffffffffffffffffffffffff16638b5ba9c8876040518263ffffffff1660e01b815260040161102e91906125d2565b60206040518083038186803b15801561104657600080fd5b505afa15801561105a573d6000803e3d6000fd5b505050506040513d601f19601f8201168201806040525081019061107e9190612c61565b8573ffffffffffffffffffffffffffffffffffffffff1660001b600160009054906101000a900473ffffffffffffffffffffffffffffffffffffffff166040518563ffffffff1660e01b81526004016110da9493929190612c8e565b602060405180830381600087803b1580156110f457600080fd5b505af1158015611108573d6000803e3d6000fd5b505050506040513d601f19601f8201168201806040525081019061112c9190612d13565b5050505050565b7f000000000000000000000000000000000000000000000000000000000000000073ffffffffffffffffffffffffffffffffffffffff16630c93e3bb8230866112033073ffffffffffffffffffffffffffffffffffffffff1663a7798b698a6040518263ffffffff1660e01b81526004016111ae91906125d2565b60206040518083038186803b1580156111c657600080fd5b505afa1580156111da573d6000803e3d6000fd5b505050506040513d601f19601f820116820180604052508101906111fe9190612609565b6113ef565b87336040518763ffffffff1660e01b8152600401611225959493929190612d40565b6000604051808303818588803b15801561123e57600080fd5b505af1158015611252573d6000803e3d6000fd5b50505050507f000000000000000000000000000000000000000000000000000000000000000073ffffffffffffffffffffffffffffffffffffffff16631c92115f846113253073ffffffffffffffffffffffffffffffffffffffff1663a7798b69886040518263ffffffff1660e01b81526004016112d091906125d2565b60206040518083038186803b1580156112e857600080fd5b505afa1580156112fc573d6000803e3d6000fd5b505050506040513d601f19601f820116820180604052508101906113209190612609565b6113ef565b856040518463ffffffff1660e01b815260040161134493929190612da8565b600060405180830381600087803b15801561135e57600080fd5b505af1158015611372573d6000803e3d6000fd5b50505050505050565b600033905090565b6113b0600160009054906101000a900473ffffffffffffffffffffffffffffffffffffffff16828461170c565b827f558c0ee8c786238cf77a23150b8f030420c53c82aa0488213ace44ee1cfc92f483836040516113e2929190612df4565b60405180910390a2505050565b60606000826040516020016114049190612e65565b604051602081830303815290604052905060006040518060400160405280601081526020017f3031323334353637383961626364656600000000000000000000000000000000815250905060006002835161145f9190612e80565b600261146b9190612eda565b67ffffffffffffffff81111561148457611483611a57565b5b6040519080825280601f01601f1916602001820160405280156114b65781602001600182028036833780820191505090505b5090507f3000000000000000000000000000000000000000000000000000000000000000816000815181106114ee576114ed612f30565b5b60200101907effffffffffffffffffffffffffffffffffffffffffffffffffffffffffffff1916908160001a9053507f78000000000000000000000000000000000000000000000000000000000000008160018151811061155257611551612f30565b5b60200101907effffffffffffffffffffffffffffffffffffffffffffffffffffffffffffff1916908160001a90535060005b8351811015611700578260048583815181106115a3576115a2612f30565b5b602001015160f81c60f81b7effffffffffffffffffffffffffffffffffffffffffffffffffffffffffffff1916901c60f81c60ff16815181106115e9576115e8612f30565b5b602001015160f81c60f81b826002836116029190612e80565b600261160e9190612eda565b8151811061161f5761161e612f30565b5b60200101907effffffffffffffffffffffffffffffffffffffffffffffffffffffffffffff1916908160001a90535082600f60f81b85838151811061166757611666612f30565b5b602001015160f81c60f81b1660f81c60ff168151811061168a57611689612f30565b5b602001015160f81c60f81b826002836116a39190612e80565b60036116af9190612eda565b815181106116c0576116bf612f30565b5b60200101907effffffffffffffffffffffffffffffffffffffffffffffffffffffffffffff1916908160001a905350806116f990612f5f565b9050611584565b50809350505050919050565b61178d8363a9059cbb60e01b848460405160240161172b929190612a8c565b604051602081830303815290604052907bffffffffffffffffffffffffffffffffffffffffffffffffffffffff19166020820180517bffffffffffffffffffffffffffffffffffffffffffffffffffffffff8381831617835250505050611792565b505050565b60006117f4826040518060400160405280602081526020017f5361666545524332303a206c6f772d6c6576656c2063616c6c206661696c65648152508573ffffffffffffffffffffffffffffffffffffffff1661185a9092919063ffffffff16565b905060008151148061181657508080602001905181019061181591906124a9565b5b611855576040517f08c379a000000000000000000000000000000000000000000000000000000000815260040161184c9061301a565b60405180910390fd5b505050565b60606118698484600085611872565b90509392505050565b6060824710156118b7576040517f08c379a00000000000000000000000000000000000000000000000000000000081526004016118ae906130ac565b60405180910390fd5b6000808673ffffffffffffffffffffffffffffffffffffffff1685876040516118e09190612ae6565b60006040518083038185875af1925050503d806000811461191d576040519150601f19603f3d011682016040523d82523d6000602084013e611922565b606091505b50915091506119338783838761193f565b92505050949350505050565b606083156119a25760008351141561199a5761195a856119b5565b611999576040517f08c379a000000000000000000000000000000000000000000000000000000000815260040161199090613118565b60405180910390fd5b5b8290506119ad565b6119ac83836119d8565b5b949350505050565b6000808273ffffffffffffffffffffffffffffffffffffffff163b119050919050565b6000825111156119eb5781518083602001fd5b806040517f08c379a0000000000000000000000000000000000000000000000000000000008152600401611a1f91906125d2565b60405180910390fd5b6000604051905090565b600080fd5b600080fd5b600080fd5b600080fd5b6000601f19601f8301169050919050565b7f4e487b7100000000000000000000000000000000000000000000000000000000600052604160045260246000fd5b611a8f82611a46565b810181811067ffffffffffffffff82111715611aae57611aad611a57565b5b80604052505050565b6000611ac1611a28565b9050611acd8282611a86565b919050565b600067ffffffffffffffff821115611aed57611aec611a57565b5b611af682611a46565b9050602081019050919050565b82818337600083830152505050565b6000611b25611b2084611ad2565b611ab7565b905082815260208101848484011115611b4157611b40611a41565b5b611b4c848285611b03565b509392505050565b600082601f830112611b6957611b68611a3c565b5b8135611b79848260208601611b12565b91505092915050565b600073ffffffffffffffffffffffffffffffffffffffff82169050919050565b6000611bad82611b82565b9050919050565b611bbd81611ba2565b8114611bc857600080fd5b50565b600081359050611bda81611bb4565b92915050565b60008060408385031215611bf757611bf6611a32565b5b600083013567ffffffffffffffff811115611c1557611c14611a37565b5b611c2185828601611b54565b9250506020611c3285828601611bcb565b9150509250929050565b6000819050919050565b6000611c61611c5c611c5784611b82565b611c3c565b611b82565b9050919050565b6000611c7382611c46565b9050919050565b6000611c8582611c68565b9050919050565b611c9581611c7a565b82525050565b6000602082019050611cb06000830184611c8c565b92915050565b6000819050919050565b611cc981611cb6565b8114611cd457600080fd5b50565b600081359050611ce681611cc0565b92915050565b600080fd5b600080fd5b60008083601f840112611d0c57611d0b611a3c565b5b8235905067ffffffffffffffff811115611d2957611d28611cec565b5b602083019150836001820283011115611d4557611d44611cf1565b5b9250929050565b60008083601f840112611d6257611d61611a3c565b5b8235905067ffffffffffffffff811115611d7f57611d7e611cec565b5b602083019150836001820283011115611d9b57611d9a611cf1565b5b9250929050565b6000819050919050565b611db581611da2565b8114611dc057600080fd5b50565b600081359050611dd281611dac565b92915050565b60008060008060008060008060008060c08b8d031215611dfb57611dfa611a32565b5b6000611e098d828e01611cd7565b9a505060208b013567ffffffffffffffff811115611e2a57611e29611a37565b5b611e368d828e01611cf6565b995099505060408b013567ffffffffffffffff811115611e5957611e58611a37565b5b611e658d828e01611cf6565b975097505060608b013567ffffffffffffffff811115611e8857611e87611a37565b5b611e948d828e01611d4c565b955095505060808b013567ffffffffffffffff811115611eb757611eb6611a37565b5b611ec38d828e01611cf6565b935093505060a0611ed68d828e01611dc3565b9150509295989b9194979a5092959850565b6000611ef382611c68565b9050919050565b611f0381611ee8565b82525050565b6000602082019050611f1e6000830184611efa565b92915050565b6000611f2f82611c68565b9050919050565b611f3f81611f24565b82525050565b6000602082019050611f5a6000830184611f36565b92915050565b60008060008060008060006080888a031215611f7f57611f7e611a32565b5b6000611f8d8a828b01611cd7565b975050602088013567ffffffffffffffff811115611fae57611fad611a37565b5b611fba8a828b01611cf6565b9650965050604088013567ffffffffffffffff811115611fdd57611fdc611a37565b5b611fe98a828b01611cf6565b9450945050606088013567ffffffffffffffff81111561200c5761200b611a37565b5b6120188a828b01611d4c565b925092505092959891949750929550565b60006020828403121561203f5761203e611a32565b5b600082013567ffffffffffffffff81111561205d5761205c611a37565b5b61206984828501611b54565b91505092915050565b600063ffffffff82169050919050565b61208b81612072565b82525050565b60006020820190506120a66000830184612082565b92915050565b6120b581611ba2565b82525050565b60006020820190506120d060008301846120ac565b92915050565b600067ffffffffffffffff8211156120f1576120f0611a57565b5b6120fa82611a46565b9050602081019050919050565b600061211a612115846120d6565b611ab7565b90508281526020810184848401111561213657612135611a41565b5b612141848285611b03565b509392505050565b600082601f83011261215e5761215d611a3c565b5b813561216e848260208601612107565b91505092915050565b600061ffff82169050919050565b61218e81612177565b811461219957600080fd5b50565b6000813590506121ab81612185565b92915050565b60008060008060008060c087890312156121ce576121cd611a32565b5b600087013567ffffffffffffffff8111156121ec576121eb611a37565b5b6121f889828a01611b54565b965050602087013567ffffffffffffffff81111561221957612218611a37565b5b61222589828a01612149565b955050604087013567ffffffffffffffff81111561224657612245611a37565b5b61225289828a01612149565b945050606061226389828a01611cd7565b935050608061227489828a01611bcb565b92505060a061228589828a0161219c565b9150509295509295509295565b6000602082840312156122a8576122a7611a32565b5b60006122b684828501611bcb565b91505092915050565b600081519050919050565b600081905092915050565b60005b838110156122f35780820151818401526020810190506122d8565b83811115612302576000848401525b50505050565b6000612313826122bf565b61231d81856122ca565b935061232d8185602086016122d5565b80840191505092915050565b60006123458284612308565b915081905092915050565b600081905092915050565b60006123678385612350565b9350612374838584611b03565b82840190509392505050565b600061238d82848661235b565b91508190509392505050565b6123a281611cb6565b82525050565b600082825260208201905092915050565b60006123c583856123a8565b93506123d2838584611b03565b6123db83611a46565b840190509392505050565b6123ef81611da2565b82525050565b600060c08201905061240a600083018c612399565b818103602083015261241d818a8c6123b9565b9050818103604083015261243281888a6123b9565b90506124416060830187612399565b81810360808301526124548185876123b9565b905061246360a08301846123e6565b9a9950505050505050505050565b60008115159050919050565b61248681612471565b811461249157600080fd5b50565b6000815190506124a38161247d565b92915050565b6000602082840312156124bf576124be611a32565b5b60006124cd84828501612494565b91505092915050565b60006080820190506124eb6000830189612399565b81810360208301526124fe8187896123b9565b905081810360408301526125138185876123b9565b90506125226060830184612399565b979650505050505050565b7f496e76616c696420636861696e00000000000000000000000000000000000000600082015250565b6000612563600d836123a8565b915061256e8261252d565b602082019050919050565b6000602082019050818103600083015261259281612556565b9050919050565b60006125a4826122bf565b6125ae81856123a8565b93506125be8185602086016122d5565b6125c781611a46565b840191505092915050565b600060208201905081810360008301526125ec8184612599565b905092915050565b60008151905061260381611bb4565b92915050565b60006020828403121561261f5761261e611a32565b5b600061262d848285016125f4565b91505092915050565b600081519050919050565b600082825260208201905092915050565b600061265d82612636565b6126678185612641565b93506126778185602086016122d5565b61268081611a46565b840191505092915050565b61269481612177565b82525050565b600060a08201905081810360008301526126b48188612652565b90506126c360208301876123e6565b6126d06040830186612399565b6126dd60608301856120ac565b6126ea608083018461268b565b9695505050505050565b7f4e487b7100000000000000000000000000000000000000000000000000000000600052601160045260246000fd5b600061272e82611da2565b915061273983611da2565b92508282101561274c5761274b6126f4565b5b828203905092915050565b600060608201905061276c60008301866123e6565b818103602083015261277e8185612599565b905081810360408301526127928184612652565b9050949350505050565b7f4f776e61626c653a206e6577206f776e657220697320746865207a65726f206160008201527f6464726573730000000000000000000000000000000000000000000000000000602082015250565b60006127f86026836123a8565b91506128038261279c565b604082019050919050565b60006020820190508181036000830152612827816127eb565b9050919050565b7f4f776e61626c653a2063616c6c6572206973206e6f7420746865206f776e6572600082015250565b60006128646020836123a8565b915061286f8261282e565b602082019050919050565b6000602082019050818103600083015261289381612857565b9050919050565b60006128a582611b82565b9050919050565b6128b58161289a565b81146128c057600080fd5b50565b6000813590506128d2816128ac565b92915050565b600080600080600060a086880312156128f4576128f3611a32565b5b600086013567ffffffffffffffff81111561291257612911611a37565b5b61291e88828901612149565b955050602061292f88828901611dc3565b945050604061294088828901611cd7565b9350506060612951888289016128c3565b92505060806129628882890161219c565b9150509295509295909350565b60008151905061297e816128ac565b92915050565b60008151905061299381611dac565b92915050565b60006129ac6129a7846120d6565b611ab7565b9050828152602081018484840111156129c8576129c7611a41565b5b6129d38482856122d5565b509392505050565b600082601f8301126129f0576129ef611a3c565b5b8151612a00848260208601612999565b91505092915050565b60008060008060808587031215612a2357612a22611a32565b5b6000612a318782880161296f565b9450506020612a4287828801612984565b9350506040612a538782880161296f565b925050606085015167ffffffffffffffff811115612a7457612a73611a37565b5b612a80878288016129db565b91505092959194509250565b6000604082019050612aa160008301856120ac565b612aae60208301846123e6565b9392505050565b6000612ac082612636565b612aca8185612350565b9350612ada8185602086016122d5565b80840191505092915050565b6000612af28284612ab5565b915081905092915050565b6000604082019050612b1260008301856123e6565b8181036020830152612b248184612652565b90509392505050565b600060208284031215612b4357612b42611a32565b5b6000612b5184828501612984565b91505092915050565b600080600060608486031215612b7357612b72611a32565b5b6000612b8186828701612984565b9350506020612b928682870161296f565b925050604084015167ffffffffffffffff811115612bb357612bb2611a37565b5b612bbf868287016129db565b9150509250925092565b7f54524144455f4641494c45440000000000000000000000000000000000000000600082015250565b6000612bff600c836123a8565b9150612c0a82612bc9565b602082019050919050565b60006020820190508181036000830152612c2e81612bf2565b9050919050565b612c3e81612072565b8114612c4957600080fd5b50565b600081519050612c5b81612c35565b92915050565b600060208284031215612c7757612c76611a32565b5b6000612c8584828501612c4c565b91505092915050565b6000608082019050612ca360008301876123e6565b612cb06020830186612082565b612cbd6040830185612399565b612cca60608301846120ac565b95945050505050565b600067ffffffffffffffff82169050919050565b612cf081612cd3565b8114612cfb57600080fd5b50565b600081519050612d0d81612ce7565b92915050565b600060208284031215612d2957612d28611a32565b5b6000612d3784828501612cfe565b91505092915050565b600060a082019050612d5560008301886120ac565b8181036020830152612d678187612599565b90508181036040830152612d7b8186612599565b90508181036060830152612d8f8185612652565b9050612d9e60808301846120ac565b9695505050505050565b60006060820190508181036000830152612dc28186612599565b90508181036020830152612dd68185612599565b90508181036040830152612dea8184612652565b9050949350505050565b6000604082019050612e0960008301856123e6565b612e1660208301846120ac565b9392505050565b60008160601b9050919050565b6000612e3582612e1d565b9050919050565b6000612e4782612e2a565b9050919050565b612e5f612e5a82611ba2565b612e3c565b82525050565b6000612e718284612e4e565b60148201915081905092915050565b6000612e8b82611da2565b9150612e9683611da2565b9250817fffffffffffffffffffffffffffffffffffffffffffffffffffffffffffffffff0483118215151615612ecf57612ece6126f4565b5b828202905092915050565b6000612ee582611da2565b9150612ef083611da2565b9250827fffffffffffffffffffffffffffffffffffffffffffffffffffffffffffffffff03821115612f2557612f246126f4565b5b828201905092915050565b7f4e487b7100000000000000000000000000000000000000000000000000000000600052603260045260246000fd5b6000612f6a82611da2565b91507fffffffffffffffffffffffffffffffffffffffffffffffffffffffffffffffff821415612f9d57612f9c6126f4565b5b600182019050919050565b7f5361666545524332303a204552433230206f7065726174696f6e20646964206e60008201527f6f74207375636365656400000000000000000000000000000000000000000000602082015250565b6000613004602a836123a8565b915061300f82612fa8565b604082019050919050565b6000602082019050818103600083015261303381612ff7565b9050919050565b7f416464726573733a20696e73756666696369656e742062616c616e636520666f60008201527f722063616c6c0000000000000000000000000000000000000000000000000000602082015250565b60006130966026836123a8565b91506130a18261303a565b604082019050919050565b600060208201905081810360008301526130c581613089565b9050919050565b7f416464726573733a2063616c6c20746f206e6f6e2d636f6e7472616374000000600082015250565b6000613102601d836123a8565b915061310d826130cc565b602082019050919050565b60006020820190508181036000830152613131816130f5565b905091905056fea264697066735822122056ed85c18b05f80bda5e63e0b8fb2b95830c0a51670e984197b5bb3020f151f864736f6c63430008090033",
  "devdoc": {
    "kind": "dev",
    "methods": {
      "nativeTradeSendTrade(string,bytes,bytes,bytes32,address,uint16)": {
        "details": "Swap native token to USDC, burn it, and send swap payload to AxelarGateway contract",
        "params": {
          "destTradeData": "Trade data for the second swap",
          "destinationChain": "Name of the destination chain",
          "fallbackRecipient": "Recipient address to receive USDC token if the swap fails",
          "inputPos": "Position of the input token in destTradeData",
          "srcTradeData": "Trade data for the first swap",
          "traceId": "Trace ID of the swap"
        }
      },
      "owner()": {
        "details": "Returns the address of the current owner."
      },
      "renounceOwnership()": {
        "details": "Leaves the contract without owner. It will not be possible to call `onlyOwner` functions. Can only be called by the current owner. NOTE: Renouncing ownership will leave the contract without an owner, thereby disabling any functionality that is only available to the owner."
      },
      "transferOwnership(address)": {
        "details": "Transfers ownership of the contract to a new account (`newOwner`). Can only be called by the current owner."
      }
    },
    "version": 1
  },
  "userdoc": {
    "kind": "user",
    "methods": {},
    "version": 1
  },
  "storageLayout": {
    "storage": [
      {
        "astId": 873,
        "contract": "contracts/CrosschainNativeSwap.sol:CrosschainNativeSwap",
        "label": "_owner",
        "offset": 0,
        "slot": "0",
        "type": "t_address"
      },
      {
        "astId": 1852,
        "contract": "contracts/CrosschainNativeSwap.sol:CrosschainNativeSwap",
        "label": "usdc",
        "offset": 0,
        "slot": "1",
        "type": "t_contract(IERC20)1056"
      },
      {
        "astId": 1855,
        "contract": "contracts/CrosschainNativeSwap.sol:CrosschainNativeSwap",
        "label": "tokenMessenger",
        "offset": 0,
        "slot": "2",
        "type": "t_contract(ITokenMessenger)2713"
      },
      {
        "astId": 1862,
        "contract": "contracts/CrosschainNativeSwap.sol:CrosschainNativeSwap",
        "label": "circleDestinationDomains",
        "offset": 0,
        "slot": "3",
        "type": "t_mapping(t_string_memory_ptr,t_uint32)"
      },
      {
        "astId": 1866,
        "contract": "contracts/CrosschainNativeSwap.sol:CrosschainNativeSwap",
        "label": "siblings",
        "offset": 0,
        "slot": "4",
        "type": "t_mapping(t_string_memory_ptr,t_address)"
      }
    ],
    "types": {
      "t_address": {
        "encoding": "inplace",
        "label": "address",
        "numberOfBytes": "20"
      },
      "t_contract(IERC20)1056": {
        "encoding": "inplace",
        "label": "contract IERC20",
        "numberOfBytes": "20"
      },
      "t_contract(ITokenMessenger)2713": {
        "encoding": "inplace",
        "label": "contract ITokenMessenger",
        "numberOfBytes": "20"
      },
      "t_mapping(t_string_memory_ptr,t_address)": {
        "encoding": "mapping",
        "key": "t_string_memory_ptr",
        "label": "mapping(string => address)",
        "numberOfBytes": "32",
        "value": "t_address"
      },
      "t_mapping(t_string_memory_ptr,t_uint32)": {
        "encoding": "mapping",
        "key": "t_string_memory_ptr",
        "label": "mapping(string => uint32)",
        "numberOfBytes": "32",
        "value": "t_uint32"
      },
      "t_string_memory_ptr": {
        "encoding": "bytes",
        "label": "string",
        "numberOfBytes": "32"
      },
      "t_uint32": {
        "encoding": "inplace",
        "label": "uint32",
        "numberOfBytes": "4"
      }
    }
  }
}